{
    "abi": [
        {
            "type": "constructor",
            "inputs": [
                {
                    "name": "accessToken",
                    "type": "address",
                    "internalType": "contract IERC20"
                },
                {
                    "name": "owner",
                    "type": "address",
                    "internalType": "address"
                },
                {
                    "name": "rescueDelay",
                    "type": "uint32",
                    "internalType": "uint32"
                },
                {
                    "name": "_creationFee",
                    "type": "uint256",
                    "internalType": "uint256"
                },
                {
                    "name": "_treasury",
                    "type": "address",
                    "internalType": "address"
                }
            ],
            "stateMutability": "nonpayable"
        },
        {
            "type": "receive",
            "stateMutability": "payable"
        },
        {
            "type": "function",
            "name": "ACCESS_TOKEN",
            "inputs": [],
            "outputs": [
                {
                    "name": "",
                    "type": "address",
                    "internalType": "contract IERC20"
                }
            ],
            "stateMutability": "view"
        },
        {
            "type": "function",
            "name": "ESCROW_IMPLEMENTATION",
            "inputs": [],
            "outputs": [
                {
                    "name": "",
                    "type": "address",
                    "internalType": "contract EvmEscrow"
                }
            ],
            "stateMutability": "view"
        },
        {
            "type": "function",
            "name": "PROXY_BYTECODE_HASH",
            "inputs": [],
            "outputs": [
                {
                    "name": "",
                    "type": "bytes32",
                    "internalType": "bytes32"
                }
            ],
            "stateMutability": "view"
        },
        {
            "type": "function",
            "name": "RESCUE_DELAY",
            "inputs": [],
            "outputs": [
                {
                    "name": "",
                    "type": "uint32",
                    "internalType": "uint32"
                }
            ],
            "stateMutability": "view"
        },
        {
            "type": "function",
            "name": "batchCreateEscrows",
            "inputs": [
                {
                    "name": "immutablesArray",
                    "type": "tuple[]",
                    "internalType": "struct IBaseEscrow.Immutables[]",
                    "components": [
                        {
                            "name": "orderHash",
                            "type": "bytes32",
                            "internalType": "bytes32"
                        },
                        {
                            "name": "hashlock",
                            "type": "bytes32",
                            "internalType": "bytes32"
                        },
                        {
                            "name": "maker",
                            "type": "uint256",
                            "internalType": "Address"
                        },
                        {
                            "name": "taker",
                            "type": "uint256",
                            "internalType": "Address"
                        },
                        {
                            "name": "token",
                            "type": "uint256",
                            "internalType": "Address"
                        },
                        {
                            "name": "amount",
                            "type": "uint256",
                            "internalType": "uint256"
                        },
                        {
                            "name": "safetyDeposit",
                            "type": "uint256",
                            "internalType": "uint256"
                        },
                        {
                            "name": "timelocks",
                            "type": "uint256",
                            "internalType": "Timelocks"
                        }
                    ]
                }
            ],
            "outputs": [],
            "stateMutability": "payable"
        },
        {
            "type": "function",
            "name": "createEscrow",
            "inputs": [
                {
                    "name": "immutables",
                    "type": "tuple",
                    "internalType": "struct IBaseEscrow.Immutables",
                    "components": [
                        {
                            "name": "orderHash",
                            "type": "bytes32",
                            "internalType": "bytes32"
                        },
                        {
                            "name": "hashlock",
                            "type": "bytes32",
                            "internalType": "bytes32"
                        },
                        {
                            "name": "maker",
                            "type": "uint256",
                            "internalType": "Address"
                        },
                        {
                            "name": "taker",
                            "type": "uint256",
                            "internalType": "Address"
                        },
                        {
                            "name": "token",
                            "type": "uint256",
                            "internalType": "Address"
                        },
                        {
                            "name": "amount",
                            "type": "uint256",
                            "internalType": "uint256"
                        },
                        {
                            "name": "safetyDeposit",
                            "type": "uint256",
                            "internalType": "uint256"
                        },
                        {
                            "name": "timelocks",
                            "type": "uint256",
                            "internalType": "Timelocks"
                        }
                    ]
                }
            ],
            "outputs": [],
            "stateMutability": "payable"
        },
        {
            "type": "function",
            "name": "creationFee",
            "inputs": [],
            "outputs": [
                {
                    "name": "",
                    "type": "uint256",
                    "internalType": "uint256"
                }
            ],
            "stateMutability": "view"
        },
        {
            "type": "function",
            "name": "emergencyWithdraw",
            "inputs": [
                {
                    "name": "token",
                    "type": "address",
                    "internalType": "address"
                },
                {
                    "name": "amount",
                    "type": "uint256",
                    "internalType": "uint256"
                },
                {
                    "name": "to",
                    "type": "address",
                    "internalType": "address"
                }
            ],
            "outputs": [],
            "stateMutability": "nonpayable"
        },
        {
            "type": "function",
            "name": "getImplementation",
            "inputs": [],
            "outputs": [
                {
                    "name": "",
                    "type": "address",
                    "internalType": "address"
                }
            ],
            "stateMutability": "view"
        },
        {
            "type": "function",
            "name": "getProxyBytecodeHash",
            "inputs": [],
            "outputs": [
                {
                    "name": "",
                    "type": "bytes32",
                    "internalType": "bytes32"
                }
            ],
            "stateMutability": "view"
        },
        {
            "type": "function",
            "name": "isDeployedEscrow",
            "inputs": [
                {
                    "name": "escrow",
                    "type": "address",
                    "internalType": "address"
                }
            ],
            "outputs": [
                {
                    "name": "",
                    "type": "bool",
                    "internalType": "bool"
                }
            ],
            "stateMutability": "view"
        },
        {
            "type": "function",
            "name": "isEscrow",
            "inputs": [
                {
                    "name": "",
                    "type": "address",
                    "internalType": "address"
                }
            ],
            "outputs": [
                {
                    "name": "",
                    "type": "bool",
                    "internalType": "bool"
                }
            ],
            "stateMutability": "view"
        },
        {
            "type": "function",
            "name": "owner",
            "inputs": [],
            "outputs": [
                {
                    "name": "",
                    "type": "address",
                    "internalType": "address"
                }
            ],
            "stateMutability": "view"
        },
        {
            "type": "function",
            "name": "predictEscrowAddress",
            "inputs": [
                {
                    "name": "immutables",
                    "type": "tuple",
                    "internalType": "struct IBaseEscrow.Immutables",
                    "components": [
                        {
                            "name": "orderHash",
                            "type": "bytes32",
                            "internalType": "bytes32"
                        },
                        {
                            "name": "hashlock",
                            "type": "bytes32",
                            "internalType": "bytes32"
                        },
                        {
                            "name": "maker",
                            "type": "uint256",
                            "internalType": "Address"
                        },
                        {
                            "name": "taker",
                            "type": "uint256",
                            "internalType": "Address"
                        },
                        {
                            "name": "token",
                            "type": "uint256",
                            "internalType": "Address"
                        },
                        {
                            "name": "amount",
                            "type": "uint256",
                            "internalType": "uint256"
                        },
                        {
                            "name": "safetyDeposit",
                            "type": "uint256",
                            "internalType": "uint256"
                        },
                        {
                            "name": "timelocks",
                            "type": "uint256",
                            "internalType": "Timelocks"
                        }
                    ]
                }
            ],
            "outputs": [
                {
                    "name": "",
                    "type": "address",
                    "internalType": "address"
                }
            ],
            "stateMutability": "view"
        },
        {
            "type": "function",
            "name": "renounceOwnership",
            "inputs": [],
            "outputs": [],
            "stateMutability": "nonpayable"
        },
        {
            "type": "function",
            "name": "setCreationFee",
            "inputs": [
                {
                    "name": "newFee",
                    "type": "uint256",
                    "internalType": "uint256"
                }
            ],
            "outputs": [],
            "stateMutability": "nonpayable"
        },
        {
            "type": "function",
            "name": "setTreasury",
            "inputs": [
                {
                    "name": "newTreasury",
                    "type": "address",
                    "internalType": "address"
                }
            ],
            "outputs": [],
            "stateMutability": "nonpayable"
        },
        {
            "type": "function",
            "name": "transferOwnership",
            "inputs": [
                {
                    "name": "newOwner",
                    "type": "address",
                    "internalType": "address"
                }
            ],
            "outputs": [],
            "stateMutability": "nonpayable"
        },
        {
            "type": "function",
            "name": "treasury",
            "inputs": [],
            "outputs": [
                {
                    "name": "",
                    "type": "address",
                    "internalType": "address"
                }
            ],
            "stateMutability": "view"
        },
        {
            "type": "event",
            "name": "CreationFeeUpdated",
            "inputs": [
                {
                    "name": "oldFee",
                    "type": "uint256",
                    "indexed": false,
                    "internalType": "uint256"
                },
                {
                    "name": "newFee",
                    "type": "uint256",
                    "indexed": false,
                    "internalType": "uint256"
                }
            ],
            "anonymous": false
        },
        {
            "type": "event",
            "name": "EscrowCreated",
            "inputs": [
                {
                    "name": "escrow",
                    "type": "address",
                    "indexed": true,
                    "internalType": "address"
                },
                {
                    "name": "hashlock",
                    "type": "bytes32",
                    "indexed": true,
                    "internalType": "bytes32"
                },
                {
                    "name": "taker",
                    "type": "address",
                    "indexed": true,
                    "internalType": "address"
                },
                {
                    "name": "maker",
                    "type": "address",
                    "indexed": false,
                    "internalType": "address"
                },
                {
                    "name": "token",
                    "type": "address",
                    "indexed": false,
                    "internalType": "address"
                },
                {
                    "name": "amount",
                    "type": "uint256",
                    "indexed": false,
                    "internalType": "uint256"
                },
                {
                    "name": "safetyDeposit",
                    "type": "uint256",
                    "indexed": false,
                    "internalType": "uint256"
                }
            ],
            "anonymous": false
        },
        {
            "type": "event",
            "name": "OwnershipTransferred",
            "inputs": [
                {
                    "name": "previousOwner",
                    "type": "address",
                    "indexed": true,
                    "internalType": "address"
                },
                {
                    "name": "newOwner",
                    "type": "address",
                    "indexed": true,
                    "internalType": "address"
                }
            ],
            "anonymous": false
        },
        {
            "type": "event",
            "name": "TreasuryUpdated",
            "inputs": [
                {
                    "name": "oldTreasury",
                    "type": "address",
                    "indexed": false,
                    "internalType": "address"
                },
                {
                    "name": "newTreasury",
                    "type": "address",
                    "indexed": false,
                    "internalType": "address"
                }
            ],
            "anonymous": false
        },
        {
            "type": "error",
            "name": "EscrowDeploymentFailed",
            "inputs": []
        },
        {
            "type": "error",
            "name": "FeeTransferFailed",
            "inputs": []
        },
        {
            "type": "error",
            "name": "InsufficientEscrowBalance",
            "inputs": []
        },
        {
            "type": "error",
            "name": "InvalidFeeAmount",
            "inputs": []
        },
        {
            "type": "error",
            "name": "InvalidTokenTransfer",
            "inputs": []
        },
        {
            "type": "error",
            "name": "OwnableInvalidOwner",
            "inputs": [
                {
                    "name": "owner",
                    "type": "address",
                    "internalType": "address"
                }
            ]
        },
        {
            "type": "error",
            "name": "OwnableUnauthorizedAccount",
            "inputs": [
                {
                    "name": "account",
                    "type": "address",
                    "internalType": "address"
                }
            ]
        },
        {
            "type": "error",
            "name": "SafeERC20FailedOperation",
            "inputs": [
                {
                    "name": "token",
                    "type": "address",
                    "internalType": "address"
                }
            ]
        }
    ],
    "bytecode": {
        "object": "0x6101006040523480156200001257600080fd5b5060405162001baf38038062001baf8339810160408190526200003591620001fe565b836001600160a01b0381166200006557604051631e4fbdf760e01b81526000600482015260240160405180910390fd5b620000708162000187565b506001600160a01b0385811660c05263ffffffff841660e0526001839055600280546001600160a01b03191691831691909117905560405183908690620000b790620001d7565b63ffffffff90921682526001600160a01b03166020820152604001604051809103906000f080158015620000ef573d6000803e3d6000fd5b506001600160a01b031660808190526200017890604080517f3d602d80600a3d3981f3363d3d373d3d3d363d7300000000000000000000000060208083019190915260609390931b6001600160601b03191660348201526e5af43d82803e903d91602b57fd5bf360881b6048820152815160378183030181526057909101909152805191012090565b60a052506200027a9350505050565b600080546001600160a01b038381166001600160a01b0319831681178455604051919092169283917f8be0079c531659141344cd1fd0a4f28419497f9722a3daafe3b4186f6b6457e09190a35050565b610a92806200111d83390190565b6001600160a01b0381168114620001fb57600080fd5b50565b600080600080600060a086880312156200021757600080fd5b85516200022481620001e5565b60208701519095506200023781620001e5565b604087015190945063ffffffff811681146200025257600080fd5b6060870151608088015191945092506200026c81620001e5565b809150509295509295909350565b60805160a05160c05160e051610e4d620002d0600039600061040d015260006102320152600081816101f001526102630152600081816101730152818161030b0152818161045601526106500152610e4d6000f3fe6080604052600436106101185760003560e01c80638da5cb5b116100a0578063dce0b4e411610064578063dce0b4e414610392578063ef33ca6f146103a8578063f0f44260146103bb578063f2fde38b146103db578063f56cd69c146103fb57600080fd5b80638da5cb5b146102de578063aaf10f42146102fc578063b166a09f1461032f578063b7d862251461035f578063d41c15c21461037f57600080fd5b80633eb5002a116100e75780633eb5002a146102205780634c2f042514610254578063551512de1461028757806361d027b3146102a9578063715018a6146102c957600080fd5b80631483e7f1146101245780631de18ae6146101615780631e89c7571461019557806334862b6a146101de57600080fd5b3661011f57005b600080fd5b34801561013057600080fd5b5061014461013f366004610bcf565b610444565b6040516001600160a01b0390911681526020015b60405180910390f35b34801561016d57600080fd5b506101447f000000000000000000000000000000000000000000000000000000000000000081565b3480156101a157600080fd5b506101ce6101b0366004610c04565b6001600160a01b031660009081526003602052604090205460ff1690565b6040519015158152602001610158565b3480156101ea57600080fd5b506102127f000000000000000000000000000000000000000000000000000000000000000081565b604051908152602001610158565b34801561022c57600080fd5b506101447f000000000000000000000000000000000000000000000000000000000000000081565b34801561026057600080fd5b507f0000000000000000000000000000000000000000000000000000000000000000610212565b34801561029357600080fd5b506102a76102a2366004610c26565b6104b0565b005b3480156102b557600080fd5b50600254610144906001600160a01b031681565b3480156102d557600080fd5b506102a7610559565b3480156102ea57600080fd5b506000546001600160a01b0316610144565b34801561030857600080fd5b507f0000000000000000000000000000000000000000000000000000000000000000610144565b34801561033b57600080fd5b506101ce61034a366004610c04565b60036020526000908152604090205460ff1681565b34801561036b57600080fd5b506102a761037a366004610c62565b61056d565b6102a761038d366004610bcf565b6105bb565b34801561039e57600080fd5b5061021260015481565b6102a76103b6366004610c7b565b61082b565b3480156103c757600080fd5b506102a76103d6366004610c04565b610944565b3480156103e757600080fd5b506102a76103f6366004610c04565b6109a6565b34801561040757600080fd5b5061042f7f000000000000000000000000000000000000000000000000000000000000000081565b60405163ffffffff9091168152602001610158565b600080610450836109e9565b905060007f00000000000000000000000000000000000000000000000000000000000000006040516020016104859190610cf0565b60405160208183030381529060405290506104a8828280519060200120306109ff565b949350505050565b6104b8610a32565b6001600160a01b038316610540576000816001600160a01b03168360405160006040518083038185875af1925050503d8060008114610513576040519150601f19603f3d011682016040523d82523d6000602084013e610518565b606091505b505090508061053a57604051634033e4e360e01b815260040160405180910390fd5b50505050565b6105546001600160a01b0384168284610a5f565b505050565b610561610a32565b61056b6000610abe565b565b610575610a32565b600180549082905560408051828152602081018490527f5de302eeb1c80d4fb0c0953b692353f09ddf431411b8eb2034d5e8576956191291015b60405180910390a15050565b608081013560006001600160a01b038216156105db578260c001356105ed565b6105ed60c084013560a0850135610d42565b90506000600154826105ff9190610d42565b9050803414610621576040516334f5151d60e01b815260040160405180910390fd5b600061063236869003860186610d63565b905061064260e086013542610b0e565b60e0820152610100812060007f000000000000000000000000000000000000000000000000000000000000000060405160200161067f9190610cf0565b604051602081830303815290604052905060008282516020840188f590506001600160a01b0381166106c457604051634f772e8b60e01b815260040160405180910390fd5b6001600160a01b038082166000908152600360205260409020805460ff19166001179055871615610708576107086001600160a01b038816338360a08c0135610b25565b600060015411801561072457506002546001600160a01b031615155b156107a1576002546001546040516000926001600160a01b031691908381818185875af1925050503d8060008114610778576040519150601f19603f3d011682016040523d82523d6000602084013e61077d565b606091505b505090508061079f57604051634033e4e360e01b815260040160405180910390fd5b505b60608801356001600160a01b03168860200135826001600160a01b03167f54af5c6f7953bd881c611f6f55da2fbff57e173562ef5a900374b07106918a446107ea8c6040013590565b604080516001600160a01b039283168152918d16602083015260a08e01359082015260c08d0135606082015260800160405180910390a45050505050505050565b6000805b828110156108fb57600061085c85858481811061084e5761084e610e01565b905061010002016080013590565b905060006001600160a01b038216156108915785858481811061088157610881610e01565b9050610100020160c001356108d5565b8585848181106108a3576108a3610e01565b9050610100020160c001358686858181106108c0576108c0610e01565b9050610100020160a001356108d59190610d42565b9050600154816108e59190610d42565b6108ef9085610d42565b9350505060010161082f565b5080341461091c576040516334f5151d60e01b815260040160405180910390fd5b60005b8281101561053a5761093c84848381811061055457610554610e01565b60010161091f565b61094c610a32565b600280546001600160a01b038381166001600160a01b031983168117909355604080519190921680825260208201939093527f4ab5be82436d353e61ca18726e984e561f5c1cc7c6d38b29d2553c790434705a91016105af565b6109ae610a32565b6001600160a01b0381166109dd57604051631e4fbdf760e01b8152600060048201526024015b60405180910390fd5b6109e681610abe565b50565b6000604051610100838237610100902092915050565b6000604051836040820152846020820152828152600b8101905060ff8153605590206001600160a01b0316949350505050565b6000546001600160a01b0316331461056b5760405163118cdaa760e01b81523360048201526024016109d4565b6040516001600160a01b0383811660248301526044820183905261055491859182169063a9059cbb906064015b604051602081830303815290604052915060e01b6020820180516001600160e01b038381831617835250505050610b5e565b600080546001600160a01b038381166001600160a01b0319831681178455604051919092169283917f8be0079c531659141344cd1fd0a4f28419497f9722a3daafe3b4186f6b6457e09190a35050565b6001600160e01b03821660e082901b175b92915050565b6040516001600160a01b03848116602483015283811660448301526064820183905261053a9186918216906323b872dd90608401610a8c565b600080602060008451602086016000885af180610b81576040513d6000823e3d81fd5b50506000513d91508115610b99578060011415610ba6565b6001600160a01b0384163b155b1561053a57604051635274afe760e01b81526001600160a01b03851660048201526024016109d4565b60006101008284031215610be257600080fd5b50919050565b80356001600160a01b0381168114610bff57600080fd5b919050565b600060208284031215610c1657600080fd5b610c1f82610be8565b9392505050565b600080600060608486031215610c3b57600080fd5b610c4484610be8565b925060208401359150610c5960408501610be8565b90509250925092565b600060208284031215610c7457600080fd5b5035919050565b60008060208385031215610c8e57600080fd5b823567ffffffffffffffff80821115610ca657600080fd5b818501915085601f830112610cba57600080fd5b813581811115610cc957600080fd5b8660208260081b8501011115610cde57600080fd5b60209290920196919550909350505050565b733d602d80600a3d3981f3363d3d373d3d3d363d7360601b815260609190911b6bffffffffffffffffffffffff191660148201526e5af43d82803e903d91602b57fd5bf360881b602882015260370190565b80820180821115610b1f57634e487b7160e01b600052601160045260246000fd5b6000610100808385031215610d7757600080fd5b6040519081019067ffffffffffffffff82118183101715610da857634e487b7160e01b600052604160045260246000fd5b81604052833581526020840135602082015260408401356040820152606084013560608201526080840135608082015260a084013560a082015260c084013560c082015260e084013560e0820152809250505092915050565b634e487b7160e01b600052603260045260246000fdfea2646970667358221220b37995b51c2b269d795d2561e1348248ff15305afbdd251abd92d7e1cd5d0cc364736f6c634300081700333360c0527f3d602d80600a3d3981f3363d3d373d3d3d363d730000000000000000000000006101209081526001600160601b03193060601b16610134526e5af43d82803e903d91602b57fd5bf360881b610148526037610100819052610157604052902060e05234801561007257600080fd5b50604051610a92380380610a92833981016040819052610091916100ad565b63ffffffff90911660a0526001600160a01b03166080526100fc565b600080604083850312156100c057600080fd5b825163ffffffff811681146100d457600080fd5b60208401519092506001600160a01b03811681146100f157600080fd5b809150509250929050565b60805160a05160c05160e05161094d6101456000396000818160ea01526104710152600081816099015261049201526000818161016c01526102f601526000505061094d6000f3fe6080604052600436106100595760003560e01c806323305703146100655780632dd310001461008757806334862b6a146100d85780634649088b1461011a57806390d3252f1461013a578063f56cd69c1461015a57600080fd5b3661006057005b600080fd5b34801561007157600080fd5b506100856100803660046107db565b61018e565b005b34801561009357600080fd5b506100bb7f000000000000000000000000000000000000000000000000000000000000000081565b6040516001600160a01b0390911681526020015b60405180910390f35b3480156100e457600080fd5b5061010c7f000000000000000000000000000000000000000000000000000000000000000081565b6040519081526020016100cf565b34801561012657600080fd5b50610085610135366004610809565b6102b4565b34801561014657600080fd5b50610085610155366004610855565b61038c565b34801561016657600080fd5b5061010c7f000000000000000000000000000000000000000000000000000000000000000081565b806101988161045d565b828280602001356101a8836104e1565b146101c65760405163abab6bd760e01b815260040160405180910390fd5b6101d560e08501356000610558565b804210156101f6576040516337bf561360e11b815260040160405180910390fd5b61020560e08601356002610558565b804210610225576040516337bf561360e11b815260040160405180910390fd5b600061023660e08801356001610558565b42101590508061026d57336001600160a01b036060890135161461026d576040516348f5c3ed60e01b815260040160405180910390fd5b610277888861059a565b6040518881527fe346f5c97a360db5188bfa5d3ec5f0583abde420c6ba4d08b6cfe61addc171059060200160405180910390a15050505050505050565b80336001600160a01b03606083013516146102e2576040516348f5c3ed60e01b815260040160405180910390fd5b816102ec8161045d565b60e083810135901c7f00000000000000000000000000000000000000000000000000000000000000000180421015610337576040516337bf561360e11b815260040160405180910390fd5b61034286338761060c565b604080516001600160a01b0388168152602081018790527fc4474c2790e13695f6d2b6f1d8e164290b55370f87a542fd7711abe0a1bf40ac910160405180910390a1505050505050565b80336001600160a01b03606083013516146103ba576040516348f5c3ed60e01b815260040160405180910390fd5b816103c48161045d565b6103d360e08401356002610558565b804210156103f4576040516337bf561360e11b815260040160405180910390fd5b608084013560408501356060860135610412838360a08a013561060c565b60c08701351561042b5761042b83828960c0013561060c565b6040517f6e3be9294e58d10b9c8053cfd5e09871b67e442fe394d6b0870d336b9df984a990600090a150505050505050565b60006104688261063d565b9050306104b6827f00000000000000000000000000000000000000000000000000000000000000007f0000000000000000000000000000000000000000000000000000000000000000610653565b6001600160a01b0316146104dd57604051635134a42560e11b815260040160405180910390fd5b5050565b60006002826040516020016104f891815260200190565b60408051601f198184030181529082905261051291610879565b602060405180830381855afa15801561052f573d6000803e3d6000fd5b5050506040513d601f19601f8201168201806040525081019061055291906108a8565b92915050565b6000828183600381111561056e5761056e6108c1565b6105799060206108ed565b905061059163ffffffff83831c1660e084901c610904565b95945050505050565b806105a48161045d565b828280602001356105b4836104e1565b146105d25760405163abab6bd760e01b815260040160405180910390fd5b608084013560608501356105eb828260a089013561060c565b60c08601351561060357610603338760c00135610686565b50505050505050565b6001600160a01b038316610629576106248282610686565b505050565b6106246001600160a01b03841683836106fa565b6000604051610100838237610100902092915050565b6000604051836040820152846020820152828152600b8101905060ff8153605590206001600160a01b0316949350505050565b6000826001600160a01b03168260405160006040518083038185875af1925050503d80600081146106d3576040519150601f19603f3d011682016040523d82523d6000602084013e6106d8565b606091505b505090508061062457604051638a0332d560e01b815260040160405180910390fd5b604080516001600160a01b03841660248201526044808201849052825180830390910181526064909101909152602080820180516001600160e01b031663a9059cbb60e01b1781528251610624938793909260009283929183919082885af18061076a576040513d6000823e3d81fd5b50506000513d9150811561078257806001141561078f565b6001600160a01b0384163b155b156107bc57604051635274afe760e01b81526001600160a01b038516600482015260240160405180910390fd5b50505050565b600061010082840312156107d557600080fd5b50919050565b60008061012083850312156107ef57600080fd5b8235915061080084602085016107c2565b90509250929050565b6000806000610140848603121561081f57600080fd5b83356001600160a01b038116811461083657600080fd5b92506020840135915061084c85604086016107c2565b90509250925092565b6000610100828403121561086857600080fd5b61087283836107c2565b9392505050565b6000825160005b8181101561089a5760208186018101518583015201610880565b506000920191825250919050565b6000602082840312156108ba57600080fd5b5051919050565b634e487b7160e01b600052602160045260246000fd5b634e487b7160e01b600052601160045260246000fd5b8082028115828204841417610552576105526108d7565b80820180821115610552576105526108d756fea2646970667358221220e525cac14bd153028fbfa59a5967d2752f023b7f5d98566c88b7ecde62fa591e64736f6c63430008170033",
        "linkReferences": {}
    },
    "methodIdentifiers": {
        "ACCESS_TOKEN()": "3eb5002a",
        "ESCROW_IMPLEMENTATION()": "1de18ae6",
        "PROXY_BYTECODE_HASH()": "34862b6a",
        "RESCUE_DELAY()": "f56cd69c",
        "batchCreateEscrows((bytes32,bytes32,uint256,uint256,uint256,uint256,uint256,uint256)[])": "ef33ca6f",
        "createEscrow((bytes32,bytes32,uint256,uint256,uint256,uint256,uint256,uint256))": "d41c15c2",
        "creationFee()": "dce0b4e4",
        "emergencyWithdraw(address,uint256,address)": "551512de",
        "getImplementation()": "aaf10f42",
        "getProxyBytecodeHash()": "4c2f0425",
        "isDeployedEscrow(address)": "1e89c757",
        "isEscrow(address)": "b166a09f",
        "owner()": "8da5cb5b",
        "predictEscrowAddress((bytes32,bytes32,uint256,uint256,uint256,uint256,uint256,uint256))": "1483e7f1",
        "renounceOwnership()": "715018a6",
        "setCreationFee(uint256)": "b7d86225",
        "setTreasury(address)": "f0f44260",
        "transferOwnership(address)": "f2fde38b",
        "treasury()": "61d027b3"
    },
    "id": 35
}