{
    "abi": [
        {
            "type": "constructor",
            "inputs": [
                {
                    "name": "rescueDelay",
                    "type": "uint32",
                    "internalType": "uint32"
                },
                {
                    "name": "accessToken",
                    "type": "address",
                    "internalType": "contract IERC20"
                }
            ],
            "stateMutability": "nonpayable"
        },
        {
            "type": "receive",
            "stateMutability": "payable"
        },
        {
            "type": "function",
            "name": "FACTORY",
            "inputs": [],
            "outputs": [
                {
                    "name": "",
                    "type": "address",
                    "internalType": "address"
                }
            ],
            "stateMutability": "view"
        },
        {
            "type": "function",
            "name": "PROXY_BYTECODE_HASH",
            "inputs": [],
            "outputs": [
                {
                    "name": "",
                    "type": "bytes32",
                    "internalType": "bytes32"
                }
            ],
            "stateMutability": "view"
        },
        {
            "type": "function",
            "name": "RESCUE_DELAY",
            "inputs": [],
            "outputs": [
                {
                    "name": "",
                    "type": "uint256",
                    "internalType": "uint256"
                }
            ],
            "stateMutability": "view"
        },
        {
            "type": "function",
            "name": "cancel",
            "inputs": [
                {
                    "name": "immutables",
                    "type": "tuple",
                    "internalType": "struct IBaseEscrow.Immutables",
                    "components": [
                        {
                            "name": "orderHash",
                            "type": "bytes32",
                            "internalType": "bytes32"
                        },
                        {
                            "name": "hashlock",
                            "type": "bytes32",
                            "internalType": "bytes32"
                        },
                        {
                            "name": "maker",
                            "type": "uint256",
                            "internalType": "Address"
                        },
                        {
                            "name": "taker",
                            "type": "uint256",
                            "internalType": "Address"
                        },
                        {
                            "name": "token",
                            "type": "uint256",
                            "internalType": "Address"
                        },
                        {
                            "name": "amount",
                            "type": "uint256",
                            "internalType": "uint256"
                        },
                        {
                            "name": "safetyDeposit",
                            "type": "uint256",
                            "internalType": "uint256"
                        },
                        {
                            "name": "timelocks",
                            "type": "uint256",
                            "internalType": "Timelocks"
                        }
                    ]
                }
            ],
            "outputs": [],
            "stateMutability": "nonpayable"
        },
        {
            "type": "function",
            "name": "rescueFunds",
            "inputs": [
                {
                    "name": "token",
                    "type": "address",
                    "internalType": "address"
                },
                {
                    "name": "amount",
                    "type": "uint256",
                    "internalType": "uint256"
                },
                {
                    "name": "immutables",
                    "type": "tuple",
                    "internalType": "struct IBaseEscrow.Immutables",
                    "components": [
                        {
                            "name": "orderHash",
                            "type": "bytes32",
                            "internalType": "bytes32"
                        },
                        {
                            "name": "hashlock",
                            "type": "bytes32",
                            "internalType": "bytes32"
                        },
                        {
                            "name": "maker",
                            "type": "uint256",
                            "internalType": "Address"
                        },
                        {
                            "name": "taker",
                            "type": "uint256",
                            "internalType": "Address"
                        },
                        {
                            "name": "token",
                            "type": "uint256",
                            "internalType": "Address"
                        },
                        {
                            "name": "amount",
                            "type": "uint256",
                            "internalType": "uint256"
                        },
                        {
                            "name": "safetyDeposit",
                            "type": "uint256",
                            "internalType": "uint256"
                        },
                        {
                            "name": "timelocks",
                            "type": "uint256",
                            "internalType": "Timelocks"
                        }
                    ]
                }
            ],
            "outputs": [],
            "stateMutability": "nonpayable"
        },
        {
            "type": "function",
            "name": "withdraw",
            "inputs": [
                {
                    "name": "secret",
                    "type": "bytes32",
                    "internalType": "bytes32"
                },
                {
                    "name": "immutables",
                    "type": "tuple",
                    "internalType": "struct IBaseEscrow.Immutables",
                    "components": [
                        {
                            "name": "orderHash",
                            "type": "bytes32",
                            "internalType": "bytes32"
                        },
                        {
                            "name": "hashlock",
                            "type": "bytes32",
                            "internalType": "bytes32"
                        },
                        {
                            "name": "maker",
                            "type": "uint256",
                            "internalType": "Address"
                        },
                        {
                            "name": "taker",
                            "type": "uint256",
                            "internalType": "Address"
                        },
                        {
                            "name": "token",
                            "type": "uint256",
                            "internalType": "Address"
                        },
                        {
                            "name": "amount",
                            "type": "uint256",
                            "internalType": "uint256"
                        },
                        {
                            "name": "safetyDeposit",
                            "type": "uint256",
                            "internalType": "uint256"
                        },
                        {
                            "name": "timelocks",
                            "type": "uint256",
                            "internalType": "Timelocks"
                        }
                    ]
                }
            ],
            "outputs": [],
            "stateMutability": "nonpayable"
        },
        {
            "type": "event",
            "name": "EscrowCancelled",
            "inputs": [],
            "anonymous": false
        },
        {
            "type": "event",
            "name": "EscrowWithdrawal",
            "inputs": [
                {
                    "name": "secret",
                    "type": "bytes32",
                    "indexed": false,
                    "internalType": "bytes32"
                }
            ],
            "anonymous": false
        },
        {
            "type": "event",
            "name": "FundsRescued",
            "inputs": [
                {
                    "name": "token",
                    "type": "address",
                    "indexed": false,
                    "internalType": "address"
                },
                {
                    "name": "amount",
                    "type": "uint256",
                    "indexed": false,
                    "internalType": "uint256"
                }
            ],
            "anonymous": false
        },
        {
            "type": "error",
            "name": "InvalidCaller",
            "inputs": []
        },
        {
            "type": "error",
            "name": "InvalidImmutables",
            "inputs": []
        },
        {
            "type": "error",
            "name": "InvalidSecret",
            "inputs": []
        },
        {
            "type": "error",
            "name": "InvalidTime",
            "inputs": []
        },
        {
            "type": "error",
            "name": "NativeTokenSendingFailure",
            "inputs": []
        },
        {
            "type": "error",
            "name": "SafeERC20FailedOperation",
            "inputs": [
                {
                    "name": "token",
                    "type": "address",
                    "internalType": "address"
                }
            ]
        }
    ],
    "bytecode": {
        "object": "0x3360c0527f3d602d80600a3d3981f3363d3d373d3d3d363d730000000000000000000000006101209081526001600160601b03193060601b16610134526e5af43d82803e903d91602b57fd5bf360881b610148526037610100819052610157604052902060e05234801561007257600080fd5b50604051610a92380380610a92833981016040819052610091916100ad565b63ffffffff90911660a0526001600160a01b03166080526100fc565b600080604083850312156100c057600080fd5b825163ffffffff811681146100d457600080fd5b60208401519092506001600160a01b03811681146100f157600080fd5b809150509250929050565b60805160a05160c05160e05161094d6101456000396000818160ea01526104710152600081816099015261049201526000818161016c01526102f601526000505061094d6000f3fe6080604052600436106100595760003560e01c806323305703146100655780632dd310001461008757806334862b6a146100d85780634649088b1461011a57806390d3252f1461013a578063f56cd69c1461015a57600080fd5b3661006057005b600080fd5b34801561007157600080fd5b506100856100803660046107db565b61018e565b005b34801561009357600080fd5b506100bb7f000000000000000000000000000000000000000000000000000000000000000081565b6040516001600160a01b0390911681526020015b60405180910390f35b3480156100e457600080fd5b5061010c7f000000000000000000000000000000000000000000000000000000000000000081565b6040519081526020016100cf565b34801561012657600080fd5b50610085610135366004610809565b6102b4565b34801561014657600080fd5b50610085610155366004610855565b61038c565b34801561016657600080fd5b5061010c7f000000000000000000000000000000000000000000000000000000000000000081565b806101988161045d565b828280602001356101a8836104e1565b146101c65760405163abab6bd760e01b815260040160405180910390fd5b6101d560e08501356000610558565b804210156101f6576040516337bf561360e11b815260040160405180910390fd5b61020560e08601356002610558565b804210610225576040516337bf561360e11b815260040160405180910390fd5b600061023660e08801356001610558565b42101590508061026d57336001600160a01b036060890135161461026d576040516348f5c3ed60e01b815260040160405180910390fd5b610277888861059a565b6040518881527fe346f5c97a360db5188bfa5d3ec5f0583abde420c6ba4d08b6cfe61addc171059060200160405180910390a15050505050505050565b80336001600160a01b03606083013516146102e2576040516348f5c3ed60e01b815260040160405180910390fd5b816102ec8161045d565b60e083810135901c7f00000000000000000000000000000000000000000000000000000000000000000180421015610337576040516337bf561360e11b815260040160405180910390fd5b61034286338761060c565b604080516001600160a01b0388168152602081018790527fc4474c2790e13695f6d2b6f1d8e164290b55370f87a542fd7711abe0a1bf40ac910160405180910390a1505050505050565b80336001600160a01b03606083013516146103ba576040516348f5c3ed60e01b815260040160405180910390fd5b816103c48161045d565b6103d360e08401356002610558565b804210156103f4576040516337bf561360e11b815260040160405180910390fd5b608084013560408501356060860135610412838360a08a013561060c565b60c08701351561042b5761042b83828960c0013561060c565b6040517f6e3be9294e58d10b9c8053cfd5e09871b67e442fe394d6b0870d336b9df984a990600090a150505050505050565b60006104688261063d565b9050306104b6827f00000000000000000000000000000000000000000000000000000000000000007f0000000000000000000000000000000000000000000000000000000000000000610653565b6001600160a01b0316146104dd57604051635134a42560e11b815260040160405180910390fd5b5050565b60006002826040516020016104f891815260200190565b60408051601f198184030181529082905261051291610879565b602060405180830381855afa15801561052f573d6000803e3d6000fd5b5050506040513d601f19601f8201168201806040525081019061055291906108a8565b92915050565b6000828183600381111561056e5761056e6108c1565b6105799060206108ed565b905061059163ffffffff83831c1660e084901c610904565b95945050505050565b806105a48161045d565b828280602001356105b4836104e1565b146105d25760405163abab6bd760e01b815260040160405180910390fd5b608084013560608501356105eb828260a089013561060c565b60c08601351561060357610603338760c00135610686565b50505050505050565b6001600160a01b038316610629576106248282610686565b505050565b6106246001600160a01b03841683836106fa565b6000604051610100838237610100902092915050565b6000604051836040820152846020820152828152600b8101905060ff8153605590206001600160a01b0316949350505050565b6000826001600160a01b03168260405160006040518083038185875af1925050503d80600081146106d3576040519150601f19603f3d011682016040523d82523d6000602084013e6106d8565b606091505b505090508061062457604051638a0332d560e01b815260040160405180910390fd5b604080516001600160a01b03841660248201526044808201849052825180830390910181526064909101909152602080820180516001600160e01b031663a9059cbb60e01b1781528251610624938793909260009283929183919082885af18061076a576040513d6000823e3d81fd5b50506000513d9150811561078257806001141561078f565b6001600160a01b0384163b155b156107bc57604051635274afe760e01b81526001600160a01b038516600482015260240160405180910390fd5b50505050565b600061010082840312156107d557600080fd5b50919050565b60008061012083850312156107ef57600080fd5b8235915061080084602085016107c2565b90509250929050565b6000806000610140848603121561081f57600080fd5b83356001600160a01b038116811461083657600080fd5b92506020840135915061084c85604086016107c2565b90509250925092565b6000610100828403121561086857600080fd5b61087283836107c2565b9392505050565b6000825160005b8181101561089a5760208186018101518583015201610880565b506000920191825250919050565b6000602082840312156108ba57600080fd5b5051919050565b634e487b7160e01b600052602160045260246000fd5b634e487b7160e01b600052601160045260246000fd5b8082028115828204841417610552576105526108d7565b80820180821115610552576105526108d756fea2646970667358221220e525cac14bd153028fbfa59a5967d2752f023b7f5d98566c88b7ecde62fa591e64736f6c63430008170033",
        "linkReferences": {}
    },
    "methodIdentifiers": {
        "FACTORY()": "2dd31000",
        "PROXY_BYTECODE_HASH()": "34862b6a",
        "RESCUE_DELAY()": "f56cd69c",
        "cancel((bytes32,bytes32,uint256,uint256,uint256,uint256,uint256,uint256))": "90d3252f",
        "rescueFunds(address,uint256,(bytes32,bytes32,uint256,uint256,uint256,uint256,uint256,uint256))": "4649088b",
        "withdraw(bytes32,(bytes32,bytes32,uint256,uint256,uint256,uint256,uint256,uint256))": "23305703"
    },
    "id": 34
}